:020000040000fa
:080000000002040000000000f2
:020000040000fa
:040008006c06000082
:020000040000fa
:04000c00c205000029
:020000040000fa
:04001000e205000005
:020000040000fa
:04001400ac06000036
:020000040000fa
:040018008c06000052
:020000040000fa
:04001c00f4060000e6
:020000040000fa
:0400200002060000d4
:020000040000fa
:04002400f4060000de
:020000040000fa
:04002800f4060000da
:020000040000fa
:04002c00f4060000d6
:020000040000fa
:04003000f4060000d2
:020000040000fa
:04003400f4060000ce
:020000040000fa
:04003800f4060000ca
:020000040000fa
:04003c00f4060000c6
:020000040000fa
:04004000f4060000c2
:020000040000fa
:04004400f4060000be
:020000040000fa
:04004800f4060000ba
:020000040000fa
:04004c00f4060000b6
:020000040000fa
:04005000f4060000b2
:020000040000fa
:04005400f4060000ae
:020000040000fa
:04005800f4060000aa
:020000040000fa
:04005c00f4060000a6
:020000040000fa
:04006000f4060000a2
:020000040000fa
:04006400f40600009e
:020000040000fa
:04006800f40600009a
:020000040000fa
:04006c00f406000096
:020000040000fa
:04007000f406000092
:020000040000fa
:04007400f40600008e
:020000040000fa
:04007800f40600008a
:020000040000fa
:04007c00f406000086
:020000040000fa
:04008000f406000082
:020000040000fa
:04008400f40600007e
:020000040000fa
:04008800f40600007a
:020000040000fa
:04008c00f406000076
:020000040000fa
:04009000f406000072
:020000040000fa
:04009400f40600006e
:020000040000fa
:04009800f40600006a
:020000040000fa
:04009c00f406000066
:020000040000fa
:0400a000f406000062
:020000040000fa
:0400a400f40600005e
:020000040000fa
:0400a800f40600005a
:020000040000fa
:0400ac00f406000056
:020000040000fa
:0400b000f406000052
:020000040000fa
:0400b400f40600004e
:020000040000fa
:0400b800f40600004a
:020000040000fa
:0400bc00f406000046
:020000040000fa
:0400c000f406000042
:020000040000fa
:0400c400f40600003e
:020000040000fa
:0400c800f40600003a
:020000040000fa
:0400cc00f406000036
:020000040000fa
:0400d000f406000032
:020000040000fa
:0400d400f40600002e
:020000040000fa
:0400d800f40600002a
:020000040000fa
:0400dc00ce0600004c
:020000040000fa
:0400e000f406000022
:020000040000fa
:0400e400f40600001e
:020000040000fa
:0400e800f40600001a
:020000040000fa
:0400ec00f406000016
:020000040000fa
:0400f000f406000012
:020000040000fa
:0400f400f40600000e
:020000040000fa
:0400f800f40600000a
:020000040000fa
:0400fc00f406000006
:020000040000fa
:04010000f406000001
:020000040000fa
:04010400f4060000fd
:020000040000fa
:04010800f4060000f9
:020000040000fa
:04010c00f4060000f5
:020000040000fa
:04011000f4060000f1
:020000040000fa
:04011400f4060000ed
:020000040000fa
:04011800f4060000e9
:020000040000fa
:04011c00f4060000e5
:020000040000fa
:04012000f4060000e1
:020000040000fa
:04012400f4060000dd
:020000040000fa
:04012800f4060000d9
:020000040000fa
:04012c00f4060000d5
:020000040000fa
:04013000f4060000d1
:020000040000fa
:04013400f4060000cd
:020000040000fa
:04013800f4060000c9
:020000040000fa
:04013c00f4060000c5
:020000040000fa
:04014000f4060000c1
:020000040000fa
:04014400f4060000bd
:020000040000fa
:04014800f4060000b9
:020000040000fa
:04014c00f4060000b5
:020000040000fa
:04015000f4060000b1
:020000040000fa
:04015400f4060000ad
:020000040000fa
:04015800f4060000a9
:020000040000fa
:04015c00f4060000a5
:020000040000fa
:04016000f4060000a1
:020000040000fa
:04016400f40600009d
:020000040000fa
:04016800f406000099
:020000040000fa
:04016c00f406000095
:020000040000fa
:04017000f406000091
:020000040000fa
:04017400f40600008d
:020000040000fa
:04017800f406000089
:020000040000fa
:04017c00f406000085
:020000040000fa
:04018000f406000081
:020000040000fa
:04018400f40600007d
:020000040000fa
:04018800f406000079
:020000040000fa
:04018c00f406000075
:020000040000fa
:04019000f406000071
:020000040000fa
:04019400f40600006d
:020000040000fa
:04019800f406000069
:020000040000fa
:04019c00f406000065
:020000040000fa
:0401a000f406000061
:020000040000fa
:0401a400f40600005d
:020000040000fa
:0401a800f406000059
:020000040000fa
:0401ac00f406000055
:020000040000fa
:0401b000f406000051
:020000040000fa
:0401b400f40600004d
:020000040000fa
:0401b800f406000049
:020000040000fa
:0401bc00f406000045
:020000040000fa
:0401c000f406000041
:020000040000fa
:0401c400f40600003d
:020000040000fa
:0401c800f406000039
:020000040000fa
:0401cc00f406000035
:020000040000fa
:0401d000f406000031
:020000040000fa
:0401d400f40600002d
:020000040000fa
:0401d800f406000029
:020000040000fa
:0401dc00f406000025
:020000040000fa
:0401e000f406000021
:020000040000fa
:0401e400f40600001d
:020000040000fa
:0401e800f406000019
:020000040000fa
:0401ec00f406000015
:020000040000fa
:0401f000f406000011
:020000040000fa
:0401f400f40600000d
:020000040000fa
:0401f800f406000009
:020000040000fa
:0401fc00f406000005
:020000040000fa
:04020000f406000000
:020000040000fa
:04020400f4060000fc
:020000040000fa
:04020800f4060000f8
:020000040000fa
:04020c00f4060000f4
:020000040000fa
:04021000f4060000f0
:020000040000fa
:04021400f4060000ec
:020000040000fa
:04021800f4060000e8
:020000040000fa
:04021c00f4060000e4
:020000040000fa
:04022000f4060000e0
:020000040000fa
:04022400f4060000dc
:020000040000fa
:04022800f4060000d8
:020000040000fa
:04022c008205000047
:020000040000fa
:04023000e2040000e4
:020000040000fa
:0402340002050000bf
:020000040000fa
:04023800f4060000c8
:020000040000fa
:04023c00f4060000c4
:020000040000fa
:04024000f4060000c0
:020000040000fa
:04024400f4060000bc
:020000040000fa
:04024800f4060000b8
:020000040000fa
:04024c00f4060000b4
:020000040000fa
:040250002205000083
:020000040000fa
:04025400420500005f
:020000040000fa
:04025800620500003b
:020000040000fa
:04025c00a2050000f7
:020000040000fa
:04026000f4060000a0
:020000040000fa
:04026400f40600009c
:020000040000fa
:04026800f406000098
:020000040000fa
:04026c00f406000094
:020000040000fa
:04027000f406000090
:020000040000fa
:04027400f40600008c
:020000040000fa
:04027800f406000088
:020000040000fa
:04027c00f406000084
:020000040000fa
:04028000f406000080
:020000040000fa
:04028400f40600007c
:020000040000fa
:04028800f406000078
:020000040000fa
:04028c00f406000074
:020000040000fa
:04029000f406000070
:020000040000fa
:04029400f40600006c
:020000040000fa
:04029800f406000068
:020000040000fa
:04029c00f406000064
:020000040000fa
:0402a000f406000060
:020000040000fa
:0402a400f40600005c
:020000040000fa
:0402a800f406000058
:020000040000fa
:0402ac00f406000054
:020000040000fa
:0402b000f406000050
:020000040000fa
:0402b400f40600004c
:020000040000fa
:0402b800f406000048
:020000040000fa
:0402bc00f406000044
:020000040000fa
:0402c000f406000040
:020000040000fa
:0402c400f40600003c
:020000040000fa
:0402c800f406000038
:020000040000fa
:0402cc00f406000034
:020000040000fa
:0402d000f406000030
:020000040000fa
:0402d400f40600002c
:020000040000fa
:0402d800f406000028
:020000040000fa
:0402dc00f406000024
:020000040000fa
:0402e000f406000020
:020000040000fa
:0402e400f40600001c
:020000040000fa
:0402e800f406000018
:020000040000fa
:0402ec00f406000014
:020000040000fa
:0402f000f406000010
:020000040000fa
:0402f400f40600000c
:020000040000fa
:0402f800f406000008
:020000040000fa
:0402fc00f406000004
:020000040000fa
:04030000f4060000ff
:020000040000fa
:04030400f4060000fb
:020000040000fa
:04030800f4060000f7
:020000040000fa
:04030c00f4060000f3
:020000040000fa
:04031000f4060000ef
:020000040000fa
:04031400f4060000eb
:020000040000fa
:04031800f4060000e7
:020000040000fa
:04031c00f4060000e3
:020000040000fa
:04032000f4060000df
:020000040000fa
:10040000af1e21000eff27000e0188000000200013
:100410000000e000020032000001200020028800fd
:1004200014000700010307000000e00003003a0089
:10043000e026260001002000020037000000200016
:1004400001002000810f70004220ae000f00070065
:10045000000020000000e0004220ae00000002008a
:1004600000000000dc520200000000000040da0042
:100470000000fe00a01820000000e0000200320092
:10048000002020009001880000000600a1028800e2
:10049000800478000000eb001f003700e284440075
:1004a00054a0b4009905ba00e284440054a0b400fa
:1004b0009906ba00e284440054a0b4000006eb00a0
:1004c000476fde00fd07b200ae018800636ce100fb
:1004d00003003a000ad801000000eb000e003700cc
:1004e000606ce10008003a00004deb000a05e800ee
:1004f000020039003420ec000af0a0008b05e9006e
:10050000f9ff3e00040037006168e100010032009d
:100510000086eb000b00070019c7ba001905ba00e6
:100520000e04e00003003a000a00e000dbff3a009e
:1005300000000600fe07b200ae0288008a047800c0
:10054000f5ff37000cd0a300e20f4d001c003b006c
:1005500089027800354dba000a05e800020039002a
:100560003420ec000af0a0008b05e9000f003200f7
:10057000254dba000a05e800020039003420ec00dd
:100580000af0a0008b05e900080032000c00e00032
:100590000600320015cdba000a05e8000200390055
:1005a0003420ec000af0a0008b05e9008984e80003
:1005b00054a0b4000b00e000e2ff3a000000060087
:1005c0009902ba00055d78008b05e900f7ff32005b
:1005d000c82ade00055d78008b05e900f3ff3200d4
:1005e0000c00e000f1ff320019ddba00eeff370029
:1005f0006100e10001003200100005005400f80025
:1006000050102000a002880000f927001000ba0056
:100610005400f9000700260000f0a6008703d1006f
:100620000703780001c4fe000003eb000120200056
:1006300091018800a1f62a00111303008703e90045
:10064000fdff3a0000f0a7000000050000f0a00048
:1006500080c4fe0086037800f3ff37000408200002
:10066000010037000002eb006100e10001003200f0
:10067000100005003200f8003400f8008102780014
:10068000930188003200be000100e0000c0032003f
:100690000470a70000f0a00032037800c733de002a
:1006a000848343004220af008703e800a70188004d
:1006b000f607b2007f30e100040032002000200085
:1006c0003400f9003200f900000006008100e90062
:1006d0000500e00003003a00018009003210030029
:1006e000e8ff37000180090032900300d561ae00b9
:1006f000e4ff370030002000f1ff370050052000f4
:10070000b00e8800a00a2000b00e8800d3e1a80037
:100710000000060050052000b00e8800a00a20004e
:10072000b00e8800d3e1a90000000600e25c0400de
:1007300000000000e85c040000000000005d040010
:1007400000000000185d040000000000305d04009f
:1007500000000000485d040000000000605d04002f
:1007600000000000785a040000000000c05a040095
:1007700000000000ee5a040000000000e65a0400e9
:1007800000000000005b040000000000085b0400a3
:1007900000000000205b040000000000285b040053
:1007a00000000000405b040000000000485b040003
:1007b00000000000505b0400000000006c5b0400bf
:1007c00000000000825b0400000000007c5904006f
:1007d0000000000084590400000000008c5904004f
:1007e000000000009459040000000000ca5b0400ef
:1007f00000000000025c0400000000009c5904009e
:1008000000000000b459040000000000cc590400ae
:1008100000000000e459040000000000745c0400c3
:10082000000000003a5c040000000000fc590400d5
:10083000000000003e5a040000000000ae5c04000e
:1008400000000000ee5c040000000000065d0400f3
:10085000000000001e5d040000000000365d040082
:10086000000000004e5d040000000000f865040078
:1008700000000000665d040000000000865d0400ca
:10088000000000009c5d040000000000ba5d040050
:1008900000000000d05d040000000000e45d0400e2
:1008a00000000000045e040000000000265e04005a
:1008b000000000002e5e040000000000365e040010
:1008c000000000005c5e040000000000745e040094
:1008d00000000000e65e040000000000fc5e040072
:1008e00000000000185f0400000000007a5f0400b0
:1008f000000000008c5e040000000000ea5f0400bd
:10090000000000000a6004000000000020600400f5
:10091000000000003e60040000000000546004007d
:10092000000000006860040000000000886004000f
:1009300000000000aa60040000000000b260040093
:1009400000000000ba60040000000000e060040045
:1009500000000000f8600400000000006a6104006c
:100960000000000080610400000000009c610400a1
:1009700000000000fe61040000000000106104009f
:1009800000000000220d040000000000da24040032
:1009900000000000b82604000000000064250400e8
:1009a00000000000d42504000000000068260400b8
:1009b000000000000000040000000000da24040031
:1009c000000000003600f800809fbe00829fbe003d
:1009d000849fbe00869fbe000000fa000080800059
:1009e000000001001048a9000080fa004f03be007b
:1009f0004f02be004f01be004f00be003600f9009e
:100a0000004006003600f800809fbe00829fbe00b6
:100a1000849fbe00869fbe000000fa001080800008
:100a2000000001001068a9000080fa004f03be001a
:100a30004f02be004f01be004f00be003600f9005d
:100a4000004006003600f800809fbe00829fbe0076
:100a5000849fbe00869fbe000000fa0020808000b8
:100a6000000001001148a9000080fa004f03be00f9
:100a70004f02be004f01be004f00be003600f9001d
:100a8000004006003600f800809fbe00829fbe0036
:100a9000849fbe00869fbe000000fa003080800068
:100aa000000001001168a9000080fa004f03be0099
:100ab0004f02be004f01be004f00be003600f900dd
:100ac000004006003600f800809fbe00829fbe00f6
:100ad000849fbe00869fbe000000fa004080800018
:100ae000000001001188a9000080fa004f03be0039
:100af0004f02be004f01be004f00be003600f9009d
:100b0000004006003600f800809fbe00829fbe00b5
:100b1000849fbe00869fbe000000fa0050808000c7
:100b2000000001001028a9000080fa004f03be0059
:100b30004f02be004f01be004f00be003600f9005c
:100b4000004006003600f800809fbe00829fbe0075
:100b5000849fbe00869fbe000000fa006080800077
:100b60000000010011a8a9000080fa004f03be0098
:100b70004f02be004f01be004f00be003600f9001c
:100b8000004006003600f800809fbe00829fbe0035
:100b9000849fbe00869fbe000000fa00c068a900c6
:100ba00020002000143107000080fa004f03be002f
:100bb0004f02be004f01be004f00be003600f900dc
:100bc000004006003600f800809fbe00829fbe00f5
:100bd000849fbe00869fbe000000fa00c608a900e0
:100be00070002000043107000080fa004f03be00af
:100bf0004f02be004f01be004f00be003600f9009c
:100c0000004006003600f800809fbe00829fbe00b4
:100c1000849fbe00869fbe000000fa002046800030
:100c2000700060000000e00003003200c488a900ea
:100c3000a0002000f03007002146800000042000c2
:100c4000008060000000e00003003200c4c8a9007a
:100c5000e0002000e830070021468000000220006c
:100c6000008060000000e00003003200c4a8a9007a
:100c700090002000e0300700214680000010200096
:100c8000008060000000e00003003200c508a900f9
:100c9000c0002000d830070021468000002020003e
:100ca000008060000000e00003003200c528a900b9
:100cb000d0002000d0300700204680006100600096
:100cc0000000e00003003200c408a900b0002000ca
:100cd000c9300700ffff37003600f800809fbe00d4
:100ce000829fbe00849fbe00869fbe000000fa0067
:100cf000c028a9000000eb00bf3007000080fa0008
:100d00004f03be004f02be004f01be004f00be00a9
:100d10003600f900004006003600f800809fbe0053
:100d2000829fbe00849fbe00869fbe000000fa0026
:100d3000c088a90030002000af3007000080fa0012
:100d40004f03be004f02be004f01be004f00be0069
:100d50003600f900004006003600f800809fbe0013
:100d6000829fbe00849fbe00869fbe000000fa00e6
:100d7000a8300700c048a900100020009e300700de
:100d80000080fa004f03be004f02be004f01be00bc
:100d90004f00be003600f900004006003600f800a3
:100da000809fbe00829fbe00849fbe00869fbe00c3
:100db0000000fa00a08080000000e0000200320085
:100dc000a08080000000010005a8a9000080fa00b2
:100dd0004f03be004f02be004f01be004f00be00d9
:100de0003600f900004006000040da000000fe0076
:100df0000a00fa000000e0003a003a00338f800059
:100e0000e18f510003003200e28f51000e003a00e2
:100e100009003700802320000000e00001003a00b4
:100e20000040da003802e2000b0035004022ef00fb
:100e300039e2a80008003700002620000000e0008a
:100e400001003a000040da006002e20002003500d2
:100e50006822ef0061e2a800020078001d00370060
:100e6000040a2000e18f51000b003a000300370014
:100e70000402e90002003a0003003700040a2000df
:100e80003e22ab00faff3a00f41180000500370063
:100e90000402e900020032006622ab00fcff3a00c7
:100ea000341380000410a20011840a000400000022
:100eb0000400e00009003200e18f510002003a0016
:100ec00024128000010037006413800084587800e9
:100ed0000000e9000000e000e1ff3a0000005100de
:100ee0000800370023002000b3bf9f00c0bf9f0051
:100ef000d1bf9f00e2bf9f006a8057000611070024
:100f00006fb897000080fa00000006000a00fa009f
:100f100011002000b1bf9f00c0bf9f006a80570032
:100f2000ff1007004fb897000080fa00000006008d
:100f3000889fbe0080047800408f80000000e000a1
:100f400005003a000000eb000e0007000084eb00f3
:100f50000000e00008003500488f80000900e00034
:100f60000500320009004400060007000000e00010
:100f700001003d000084eb00080078004f04be0033
:100f800000000600800078000100e00003003a0045
:100f900000002000408f8800000005000080eb006a
:100fa00002002000828f500002003e00418f880026
:100fb0000000eb00000006000800fa00100798008f
:100fc00021079800320798000000eb00000f78001e
:100fd000000000004e2c07000004a2000004e00006
:100fe000fcff3a000a00370000000000382c070020
:100ff0000004a2000004e000fcff3a002e00900074
:101000001e004000104078001e0fe8001b2c070057
:101010003e0090009e007800808f5000f2ff390063
:101020001e0078000080fa000000060000000500a5
:101030006022b800060220000000d0008180d200ab
:101040000482d2008582d2000000a0000202520079
:1010500083825a00030031000202420083824a0068
:101060000000a1000603e900f3ff3a0000000600bb
:101070000000fa0068815700cfb897006d020700a2
:101080000080fa00000006008a000700e300070065
:1010900096010700be01070017010700cc020700f8
:1010a000770237000000fa0068815700cfb8970038
:1010b000650207000080fa0000000600f104070046
:1010c000aa050700450607005b060700fd05370077
:1010d000889fbe008a9fbe00800478000200e00066
:1010e0005b00320001407800814c7800828144002e
:1010f000f1f99f00e20f510055003600914498002d
:10110000a1449800e1f99f00d1f99f00e60f51003a
:101110004f003600b1449800c1f99f00e80f51001c
:101120004b0036000905ea00630565000a844400a7
:101130000a055100c1ff2f00010565000080fb007a
:101140008000eb001210200013102000d5100700c3
:10115000008cbe000a01440060b99f0071b99f0075
:10116000e80f55003a00360020049800310498003a
:10117000400498005104980020b99f0031b99f00a5
:1011800040b99f0051b99f00f80f5500300036005c
:101190006004980071049800000c9800110c9800ed
:1011a000200c9800310c9800400c9800510c9800cd
:1011b00020b19f0031b19f0040b19f0051b19f000d
:1011c00060b19f0071b19f0000b99f0011b99f00ed
:1011d00064016400780141000204440002055500e6
:1011e0006011b8000203be000002be000403be008e
:1011f0006022b8000000720081807200020173005a
:101200008381730010003700009cbe000294be0072
:1012100040049800510498006204980073049800f8
:10122000000c9800110c9800220c9800330c9800c8
:10123000400c9800510c9800620c9800730c9800b8
:101240000a02b1000802b000ff0f5500eeff3e0099
:10125000090078004f05be004f04be0000000600e4
:101260008001eb000200e000100032000002780074
:1012700001037800b44178000304e0000800320064
:10128000b14278000504e00005003200820340000e
:10129000848f53000200320085cf5100f4ff3200ea
:1012a0008381fb001680fb008081510003007800e1
:1012b00000000600ec874700889fbe008a9fbe00a2
:1012c0008c9fbe008e1f7800000678000104780015
:1012d000180790002805900098067800cdb79f0069
:1012e000b80590003202be002203be000400be001a
:1012f0000601be004f18de006011b8008000eb0050
:10130000d0b79f00e1b79f00f2b79f0083bf9f0057
:10131000800478000900e000060032006000b80098
:101320006011b8000402500085825800060359007d
:10133000878359000e00e000020035000d10a10067
:10134000cdb79f000900e00005003a004fb09700bc
:101350000028a30002003a000038a3000200320077
:101360008a00e900010037008a007800f881570000
:10137000a200200008007800890007000900e000b2
:1013800003003a00cfb097000128a3000800320004
:101390000000e90000814500b1c2b3000900e0008f
:1013a00001003200d1c2b3000149780006003700c5
:1013b0000138a300040032000000e90080804500ed
:1013c00002c2b30082487800480190000201e9009f
:1013d00000015100808045004fb297008a017800db
:1013e0000c007800450207009c0090000188a300d3
:1013f0000400320098009000810f500001003d0071
:10140000010078004f0778004f06be004f05be0070
:101410004f04be00cf00b100000006000200fa0039
:10142000889fbe008a9fbe00800578000104780076
:1014300002007800180190002805900098007800bc
:10144000b1bf9f00b80490000200e0000200350028
:101450000110a100b1bf9f00ea8157008200200067
:101460008a0078003002be002003be000800780029
:101470004b0007003fb99700f00061000400320004
:101480000000e9008080440002c3b3008248780075
:101490003fb99700e8006100040032000000e90055
:1014a0008080440002c2b300824878004801900066
:1014b0000201e90000015100808044003fba97001a
:1014c0008a0178000b0078000c0207009b00900056
:1014d0000188a3000400320098009000810f5000a2
:1014e00001003d00010078004f05be004f04be0022
:1014f0000080fa0000000600ea874700889fbe00cf
:101500008a9fbe008e1f78000004780003007800d8
:101510007287570084e2260055c72600049fbe004c
:10152000c3962200030f78006c875700004feb0032
:1015300011059000a1049000910578000200e000e0
:10154000020032000207780001003700728757005e
:101550000000e00002003a000e00780024090700b5
:101560000a00e000030035008a0f50000100360039
:101570000a0078000b0278008901780000017800e9
:101580008e00780008007800dc0107004f07780023
:101590004f05be004f04be00af00b10000000600c2
:1015a000f4874700889fbe008a9fbe008c9fbe00c4
:1015b0008e1f78000605be000404be0081bf9f0098
:1015c00082b79f00f3b79f00b0009000e1b79f0083
:1015d0001301780092b79f009006900040009000a1
:1015e0000000e900000678000d00e00001003d0069
:1015f0001d002000efb19700008041000048eb0083
:101600001e0020001f0037000c06e9000fb09700f5
:10161000cf80de006109b900a0b79f00b1b79f007d
:10162000c2b79f00d3b79f000203be000002be00f6
:101630000800be000a01be00401007000007780045
:10164000efb097000c80400003c3b300034847008d
:101650008d06e9000fb897000000e90080bf9f00e9
:101660002fb29700bfb297004fb39700dfb3970038
:101670000800be000a01be00291007000205be00d6
:101680000004be000c00e0000d003400e00f540028
:10169000e08f5c00e00f5d00e08f5d00daff3a0054
:1016a0000d00e000d8ff3c008fb897000100e0007b
:1016b000030034001fb197000218a300d2ff3a00c4
:1016c0000e00e00002003a00ffb197001340a100b5
:1016d0000c0078004f0778004f06be004f05be0093
:1016e0004f04be004f01b100000006000200fa00e6
:1016f000889fbe008a9fbe00000578000104780024
:101700000200780018019000a8049000980078006a
:10171000b1bf9f00b80590000200e0000200350054
:101720000110a100b1bf9f00ea815700a200200074
:10173000890078003002be002003be000800780057
:1017400097ff0700480190000201e90000015100e5
:10175000808045003fba9700890178000a00780030
:10176000660107009a0090000188a300040032007f
:1017700098009000810f500001003d0001007800aa
:101780004f05be004f04be000080fa0000000600b6
:10179000fa874700889fbe008a9fbe008c9fbe00cc
:1017a0008e1f78008004780001047800820578009c
:1017b000180190002805900018077800b8009000e4
:1017c0000200e000020035000e10a1000100370009
:1017d0001200200070006700e0b79f00090032008f
:1017e0003b02be002b03be00e00f5200e08f5a0008
:1017f000e00f5b00e08f5b00020032008a86e900a8
:10180000010037008a067800e8026700f5b79f00fc
:10181000010032008d06e9003b02be002b03be0032
:10182000e4af9f00f5af9f0086b79f0097b79f007a
:10183000480690000c06e9000c8040000048eb00d0
:10184000efb297007fb29700890378008104780097
:10185000d8af9f00020478008bbf9f008a057800f4
:10186000034578002b0037000c06e9006fab9700aa
:101870006f006300e90f500002003c000003b0005d
:10188000010037007005b0000a03fb001604b10028
:10189000f90f53000c003e00000378000650a00032
:1018a0001606b100f90f530007003e00b4b79f00c1
:1018b000a5b79f00c7b79f00a7080700cfb3970041
:1018c000afb297003fb297000c834400004b780002
:1018d0000804e9008d06e9006fa89700ffa89700ab
:1018e0000fb197009fb19700460020008301d100ff
:1018f0000281d3008180d3000080d3000603e90079
:10190000faff3a00e0af9f00f1af9f0082b79f005f
:1019100093b79f00e10f56000f0034006fa89700a7
:10192000ffa897000fb197009fb19700e00f5000fc
:10193000e08f5800e00f5900e08f5900caff3a00cd
:101940000800e000c8ff3c000d00e0000200340089
:101950000e18a300c4ff3a0089007800f4b79f0076
:10196000870478005fac97008a4178000b05780007
:101970008fbd97000500e000120032003b02be0060
:101980002b03be00e4af9f00f5af9f0086b79f001a
:1019900097b79f00e00f5200e08f5a00e00f5b0006
:1019a000e08f5b00070032000c06e9000c8040006d
:1019b000034878000c06e9000c80400002c3b30025
:1019c00002487800ffb297000500e00004003200f2
:1019d0000c06e9000c80400002c2b3000248780007
:1019e000480190000201e9000c0151008c80400088
:1019f0000e0278008a01780009007800bf00070015
:101a0000990090000188a300040032009800900023
:101a1000810f500001003d00010078004f07780061
:101a20004f06be004f05be004f04be00af01b1001f
:101a3000000006008201780001017800f1ff270014
:101a40005a083700980637003c00fa008f017800ea
:101a5000c303b1001d0009008019eb00c0a79f005f
:101a600080b79f0020d22000b0b79f0040fc2f001d
:101a70000f0040003f0807000080fa000000060049
:101a800084082000848f50001d0032000d003c00af
:101a900014082000848f50002700320002003c0010
:101aa000040820000400370024082000848f500020
:101ab0003400320044082000848f500043003a0074
:101ac00036003700040a2000848f500027003200bf
:101ad00004003c0004092000848f50003b003a00c1
:101ae00028003700020c2000828f50002f003200a7
:101af000020f2000828f500034003a002b00370084
:101b00009380e9000200e0000500320081097800be
:101b10001102fb00cfa2de00612bb90028003700c4
:101b200081097800114278000482fb008002eb00fa
:101b30006033b8002200370013027800e40052003e
:101b40000200e00005003200810978001102be00a9
:101b50004fabde008603780019003700810978005a
:101b60001102be006033b800150037009380e90011
:101b70008109780011027800cfa2de00612bb90044
:101b80000f00370093027800e88052008109780046
:101b90003102be002103be00090037009380e90036
:101ba0000200e00002003200f1ff37009380e900fc
:101bb00081097800110278008002eb006033b800e0
:101bc0000498be000690be0010000500000005004d
:101bd00044082000848f50002500320008003c009b
:101be00014082000848f50001400320024082000c4
:101bf000848f500024003200040820000c003700bd
:101c000004092000848f50001f00320004003c00b3
:101c100084082000848f500024003a000e00370012
:101c2000040a2000848f500011003200040c2000b0
:101c3000848f50001d003a000d0037009380e900aa
:101c4000810978009100780001087800cf91de00ca
:101c50008288be00140037009380e9008109780073
:101c60009100780001087800824878000e00370063
:101c70009380e900810978009100780001087800dc
:101c800082087800080037009380e9008109780015
:101c900091007800010878006112b900612bb90049
:101ca0008498be008690be0010000500000005006c
:101cb000889fbe00000478004800900082047800ed
:101cc000808f5400010036008004780009017800fc
:101cd000580090008206070058009000090040005c
:101ce00050049800c800900089845000490498006e
:101cf0000048eb004f04be0000000600f2874700da
:101d0000889fbe008a9fbe008c9fbe008e1f7800f9
:101d100080047800010578000204780083057800cb
:101d20006107620002003a008b0f5400080039007e
:101d3000080178008a007800090078001f0b07006e
:101d40008b0f540002003900880578001e00370010
:101d5000088655000c017800f00f5600010036008f
:101d600002012000010220007e805700d8fc0700fd
:101d70008c0678000500370002012000fe80570025
:101d8000090078000d0b0700f0865600ef8f560013
:101d9000f9ff3e004461de0000ff2f008091b90092
:101da0000c014100fe80570009007800030b07007a
:101db0000e00e00004003a00080178008a00780074
:101dc00009007800fd0a07000b0078004f07780033
:101dd0004f06be004f05be004f04be002f01b100ec
:101de00000000600000005000000050000000500de
:101df000000178000040eb008080fb008180400003
:101e0000831c210081814100134278000404e0001a
:101e100004003a00901c210081004000114078002d
:101e20000000060092017800934f520005003a002e
:101e3000901c210081004000114078000309e80057
:101e4000010037000040e800ea4f5000eaff36008a
:101e500000000600f6874700889fbe008a9fbe00ec
:101e60008c9fbe008e1f780000057800010478006a
:101e700083057800040678000000eb00c0b79f00df
:101e80008080eb00d1b79f00e0b79f00f2b79f00c2
:101e90000008200080bf9f009800780001007800b3
:101ea0008004eb00010037008904e800304178002d
:101eb0000204e0000300320053c2b300834f51001c
:101ec000f9ff3a000900e00004003200090178003f
:101ed0000a007800b90a0700188c44001807780037
:101ee00050c2b3009e4f10003f013a000e07e800b9
:101ef0000e0c780010003700cfb097000100a00052
:101f00000b003700cfb097000110a0000800370089
:101f1000cfb097000120a00005003700cfb0970098
:101f20000130a00002003700cfb097000140a000b0
:101f3000c1b79f00000ce8001800780090407800be
:101f4000b2c2b30082cf5000f1ff320007003c0064
:101f500002c2b30082cf5000f0ff320032c2b300a1
:101f600082cf500007003a00efff3700d2c2b30023
:101f700082cf5000e0ff320002c3b30082cf500096
:101f8000e0ff3200a2c2b30082cf50000d003a0041
:101f9000000ce8001c80e900000e780010007800ba
:101fa000e0b79f000000e0000f003d00cfb09700b9
:101fb0000100a200c1b79f000000ea00e0b79f0047
:101fc0000900370064050700e0b79f0001003700f3
:101fd000000ce800180078009000fb000103b1003d
:101fe000e98f5000faff36004fb097000008a300b9
:101ff000020032000010a100c0b79f001800780056
:10200000e1c2b30090cf100016003a008000eb0050
:10201000d1b79f000000e800000c7800a1c2b30017
:1020200090cf100006003a00000ce8001c80e90088
:10203000000e780010007800d0b79f00090037002c
:1020400045050700d0b79f0001003700000ce800ed
:10205000180078009000fb000103b100e98f5000e8
:10206000faff36000800780061ff0700804678001c
:10207000180078001000fb00b00607009106200051
:10208000810f50003800320012003c004106200051
:10209000810f5000340032000a003c00110620007d
:1020a000810f50002000320031062000810f5000c7
:1020b000a000320051022000810f5000bc003a0005
:1020c000b400370071062000810f5000b8003c00ba
:1020d0008800370001072000810f50005c003200ab
:1020e00007003c00e1062000810f50007a0032001a
:1020f000f1062000810f5000ad003a003900370092
:1021000051072000810f5000270032008107200076
:10211000810f50004200320031072000810f500033
:10212000a3003a008f0037008d80fb000c0178007f
:1021300000fe2f000f004000c10607000000e00075
:10214000a800320018007800000ce80090417800e8
:1021500002fe2f000f014100f88057000a007800ae
:1021600021ff07000e0037008d80fb008c017800f6
:102170001200200000fe2f000f00400040fe07006c
:102180000000e00097003200180ce80002fe2f006b
:102190000f014100f88057000a00780045fc070055
:1021a00080844400900037008d80fb008c01780013
:1021b0000001eb0000fe2f000f00400030fe070082
:1021c0000000e00087003200180ce80002fe2f003b
:1021d0000f014100f88057000a00780043fd070016
:1021e000efff37008d80fb008c0178000001eb00d1
:1021f00000fe2f000f00400021fe07000000e0005d
:1022000078003200180ce80002fe2f000f01410098
:10221000f88057000a00780080fc0700e0ff3700d4
:102220008d80fb008c0178000001eb0000fe2f0088
:102230000f00400012fe07000000e00069003200bd
:1022400018007800000ce800904178001c0037006e
:102250008c0178000001eb00010f200000fe2f0030
:102260000f00400006fe07000000e0005d003200a5
:10227000180ce8000fb097009fb097002fb197009f
:10228000bfb19700e00f5000e08f5800e00f5900f9
:10229000e08f590009003a00cfb597006fb497005e
:1022a000001c2100d20507000b027800880178008d
:1022b00000017800011c21004700370083c7b300ec
:1022c00002fe2f000f014100f88057000a0078003d
:1022d0002ffd0700b2ff37000b8144008d80fb000b
:1022e0008c01780000fe2f000f00400038fe070030
:1022f0003c0037008d80fb000c01780000fe2f00b1
:102300000f0040004e0607000000e00035003200dc
:1023100018007800000ce8009041780002fe2f00c1
:102320000f014100f88057000a007800aefe070058
:102330009bff370000c8b30080cf560029003a0049
:10234000180ce8001c80e900000e780010407800ae
:10235000e0df9f0013002000e2fd2f000f0141008d
:102360000800370000c8b30080cf56001d003a00b7
:10237000180ce8001c80e900000e78008001eb00da
:1023800010017800f88057000a0078005afc070016
:1023900083ff370000c8b30080cf560011003a0019
:1023a000180ce8004fb29700efb197000800370013
:1023b0000e0c78000000eb00c0b79f00e0b79f0054
:1023c0000080eb00d0b79f000002eb008401780092
:1023d00012002000611c21000a00780047fe07005f
:1023e0006fff3700180ce800090078004f077800ed
:1023f0004f06be004f05be004f04be006f01b10086
:10240000000006008200fa00889fbe008a1f780044
:102410000005780082047800c13f9f000004eb00b3
:10242000100037000902780088017800a2f72f0019
:102430000f01410081f72f008f8040000a007800d3
:1024400084fe070008004000880f500004003d0093
:10245000b0042000108f88000084eb0004003700d7
:10246000000478004f3897001004e000edff3a00b8
:10247000080078004f0578004f04be000080fa0085
:10248000000006000200fa00889fbe008104780068
:102490008200780003017800310490005f06070095
:1024a000e10f40000b003200a2002000e680570040
:1024b0000800780093050700809cbe008294be004f
:1024c00010002000dfb89700810f540001003a008f
:1024d000e0ff2f004f04be000080fa00000006005d
:1024e000ea874700889fbe008a9fbe008c9fbe007f
:1024f0008e1f7800000478000105780083bf9f00dc
:10250000a205900042009000e0b79f00b204900046
:10251000830078001106780008007800be010700eb
:102520008fb897008c0840000b00e00004003a00d0
:102530006fb097000000e900f0b79f00010037007e
:10254000fbb79f00ad0020000007eb001b00370029
:1025500078089000b8109000810f500003003100ff
:10256000b085fb00700c9800080037000800780068
:102570008704070080057800e18f450003003a00da
:102580000c00e0005e003c00710037000c00e00031
:102590000c003a00b0022000808f5500030032008a
:1025a000d0022000808f550006003a008b4c780046
:1025b0008fb897009108e8001e0020000e067800f2
:1025c000480037008e0f56002a003a000c07e8003a
:1025d000ea8f560004003a0000032000808f550067
:1025e00023003a0020003700e88f560020003a0010
:1025f0008b0078000150a00080072000808f5000e1
:102600001b003a00f808900038109000808f5000ae
:10261000030031003180fb00710c9800020037008c
:10262000080078005a040700b81090000100e0008c
:1026300003003200f80890008100e900710c980056
:10264000eb0307000000e000140032000c86440099
:102650000b4e78000fb897001008e8000e067800bf
:102660000d0120001f0037008d0020000100370001
:102670000007eb0000fd2f000b004000e90f5000a9
:102680000d003600f08f560004003a000b00780071
:10269000d70307000000e0000d003a00381090005a
:1026a0000000e00016003200780890000000e90009
:1026b000700c980012003700e88f560004003a00b2
:1026c00070032000808f550001003400ad00200011
:1026d0000c8044000b4878000c06e8008fb8970087
:1026e0009108e8007fb09700800f560004003d007d
:1026f000efb097000100e900800f560094ff35000d
:102700000c864400004eeb00ea8f560005003a00ac
:102710000d017800f680570009007800f9040700e1
:10272000040037000d017800f6805700090078009a
:10273000f0040700009dbe000295be001b002000b3
:102740005fb09700808f540001003a00ebff2f002c
:102750000b0078004f0778004f06be004f05be0003
:102760004f04be00af00b10000000600e68747003e
:10277000889fbe008a9fbe008c9fbe008e1f78007f
:102780000004780001057800030678002207900015
:102790004200900080bf9f00b20490009c0578002a
:1027a000080078001c0107000b0e40000e00e0003e
:1027b00002003a008fb897000107e9008906780007
:1027c0008005eb001c003700f808900038109000de
:1027d000808f5000030031003180fb00710c9800a5
:1027e0000700370008007800e9030700e10f400008
:1027f00003003a000b00e00015003c002100370008
:1028000001fd2f0080804000e78f50000700360058
:10281000381090000000e0000d00320078089000b1
:102820000000e900700c980009003700805e780015
:102830008b05e8001c0ee8008e8f550004003d005b
:102840008fb897000100e900808f5500deff35004a
:102850008b854400804deb0082002000f280570001
:1028600009007800a3040700009dbe000295be0089
:1028700010002000ffb09700818f540001003a0043
:10288000e0ff2f004f0778004f06be004f05be0047
:102890004f04be006f00b100000006008000780009
:1028a0001000200002022000828f5000040032003d
:1028b000e9805000e48f5000010036000000eb007a
:1028c00000000600889fbe008a9fbe008c9fbe004d
:1028d0008e1f78000004be000205be00840678004a
:1028e0000a00e000040032001b06780008007800af
:1028f000c90007008c0d4000290790008004eb0000
:102900002200370078089000b8109000810f500026
:10291000030031003086fb00700c9800080037007f
:10292000080078009a03070000067800e10f4600cf
:1029300003003a000900e00018003a0021003700c7
:102940000a00e0000b0032000c007800d3ff070003
:102950000000e00007003200381090000000e000a6
:102960000e003200780890000000e900700c98001a
:102970000a0037000d00e000020032000980460026
:102980000c4878008904e8009b0de8000e00e00088
:10299000dcff32008e8f5400daff35000d00e000be
:1029a000040032000a00e00002003200898646007e
:1029b000804eeb0009f0a7008904ea000906ea004e
:1029c0004f66de000c0078004f0778004f06be000f
:1029d0004f05be004f04be00000006000200fa00d2
:1029e000889fbe008104780082007800030178008f
:1029f0003104900009050700e10f40000b00320090
:102a0000a2002000e6805700080078003904070083
:102a1000809cbe008294be0010002000dfb89700aa
:102a2000810f540001003a00e0ff2f004f04be0068
:102a30000080fa0000000600e8874700889fbe007b
:102a40008a9fbe008c9fbe008e1f78000004780015
:102a50000105780083067800a205900042009000ee
:102a6000f0b79f00b20490001d06780008007800bf
:102a7000690007008c0e40000b00e00004003a00e3
:102a8000ffb097008100e90081bf9f00010037007f
:102a90008bbf9f00090778000006eb003900370064
:102aa00078089000b8109000810f500003003100aa
:102ab000b085fb00700c9800080037000800780013
:102ac0003303070080057800e18f450003003a00da
:102ad0000c00e00032003c003e0037000b007800a4
:102ae000c30207000000e00023003a00e10f560097
:102af0001a003a000b00780010040700810720003c
:102b0000810f500015003a0000c3b300994f100028
:102b100012003a00f808900038109000808f5000a2
:102b2000030031003180fb00710c98000200370077
:102b30000800780016030700b81090000100e000bc
:102b400003003200f80890008100e900710c980041
:102b5000a70207000000e00007003a0038109000cc
:102b60000000e0000e003200780890000000e9004c
:102b7000700c98000a0037000b5f78000c06e80024
:102b80009d0ee8000fb89700800f560004003d002e
:102b9000ffb097000100e900800f5600c0ff35002c
:102ba0000c864400004eeb0002012000f480570028
:102bb00009007800cf030700009dbe000295be000b
:102bc0001b0020006fb09700808f540001003a0076
:102bd000ebff2f000b0078004f0778004f06be0078
:102be0004f05be004f04be008f00b100000006007c
:102bf000800078001000200002022000828f500028
:102c000004003200e9805000e48f500001003600db
:102c10000000eb0000000600889fbe000004780062
:102c20008004eb000b003700f1ff07000000e0001c
:102c300007003a00381090000000e0001000320059
:102c4000780890000000e900700c98000c00370034
:102c50008904e800f808900038109000808f500038
:102c6000030031003180fb00710c9800eeff37004b
:102c700008007800c6020700e10f4000eaff3a00b2
:102c8000090078004f04be0000000600889fbe00c7
:102c90008a1f78000004be00190078001000fb00b5
:102ca000d3ff07000005eb000000e0000900320040
:102cb00008007800d8ff0700000578001900e80038
:102cc000800c78001000fb00c9ff07000000e00046
:102cd000faff3a000a0078004f0578004f04be0062
:102ce000000006001801fa00889fbe008a9fbe00ff
:102cf0008c9fbe00000578000104780083057800f1
:102d00000406780068004700040009000018eb0082
:102d10007207980000082000000f980088007800d3
:102d20000a007800d9ff07008006780019003700f4
:102d30007a089000ba109000810f50000300310013
:102d4000b084fb00700d9800050037000a00780081
:102d50008f02070080047800e18f440007003200f2
:102d6000180078001000fb00808f54000300320030
:102d70003a109000e9ff2f00100137009b0de8008a
:102d8000180ce800880078000a007800bfff0700f0
:102d90008086460018007800904078000104e0002a
:102da0000300320052c2b30082cf5000e0ff3a006d
:102db0009b8d460051c2b30090cf10008b013a00aa
:102dc0000000e800000c78008000eb00610798002c
:102dd000210f9900a1c2b30090cf100003003a0068
:102de000000ce80011002000210f99001800780065
:102df000d9010700600798006102b900612bb90092
:102e00000a0078003d02070001003700000ce800ce
:102e1000180078009000fb000103b100e98f50001a
:102e2000faff360008007800f1fb070080467800c2
:102e3000180078001000fb004003070091062000f6
:102e4000810f50003900320015003c00310620008f
:102e5000810f5000a10032000a003c00b1052000a3
:102e6000810f5000db00320011062000810f50005e
:102e70008800320051022000810f50005a013a00b0
:102e8000ba00370041062000810f500019003200bf
:102e900071062000810f500053013c007d00370077
:102ea00001072000810f50005900320007003c004c
:102eb000e1062000810f500066003200f10620007c
:102ec000810f500048013a003d00370051072000b3
:102ed000810f50002600320081072000810f500032
:102ee0004500320031072000810f50003e013a00ba
:102ef0008d0037008b017800680147008e00780054
:102f00000a0078005ffd0700800478000900e000f7
:102f100039013500180ce8008004eb002e08910000
:102f20000000e00034013a000d0037008b0178000a
:102f3000680147008e0078000a00780068fd0700ed
:102f4000800478000900e0002b013500180ce8002f
:102f50008004eb00ae0891000100e00026013a0079
:102f60008d80fb008c0178001200200010003700db
:102f70008b017800680147008e0078000a00780015
:102f800096fe0700800478000900e0001a01350071
:102f9000180ce8008004eb002e0891000000e0000f
:102fa00015013a008d80fb008c0178000901780042
:102fb0000e00780060030700800478000e013700df
:102fc0008b017800680147008e0078000a007800c5
:102fd000e6fd0700800478000900e00006013500e6
:102fe000180ce8008004eb00ae0891000100e0003e
:102ff00001013a00ebff37008b01780068014700c0
:103000008e0078000a0078008bfe0700ddff370095
:103010008b017800680147008e0078000a00780074
:1030200085fe0700800478000900e000f20035000a
:10303000180ce8008004eb00ae0891000100e000ed
:10304000ed003a008c01780009017800010f2000a2
:10305000d7ff3700180ce8001b007800cf80de0097
:103060006109b900009fbe000297be008004eb001a
:103070002e0891000000e000df003a008d80fb0088
:103080008c017800090178000e0078002a030700ff
:10309000d90037008b017800680147008e00780066
:1030a0000a007800da000700800478000900e000d8
:1030b000d1003500180ce8008004eb00ae08910048
:1030c0000100e000cc003a008d80fb000c0178008c
:1030d0000e007800f9020700b7ff370000c8b30000
:1030e00080cf5600c0003a006e0090000000e00063
:1030f00002003a001000200060079800180ce80059
:103100000002eb002e0891000000e00003003a00ee
:103110001c80e900000e7800100278008b01780016
:103120000001eb000d00370000c8b30080cf56004f
:10313000ad003a00180ce8000002eb00ae08910068
:103140000100e00003003a001c80e900000e780056
:10315000100278008b01780012002000e800470080
:103160000a007800d7fd070093ff370000c8b300be
:1031700080cf56009c003a00180ce800fa08900036
:103180003a109000808f5000030031003180fb0026
:10319000710d9800020037000a0078007c010700da
:1031a00051022000810f500002003a009b0de80000
:1031b000900037003a1090008004eb000000e0001f
:1031c0008d0032007a0890000000e900700d980030
:1031d0008900370000c8b30080cf560082003a0053
:1031e0008006eb002e0891000000e00003003a008a
:1031f0001c80e900000e7800900678001800e800b6
:10320000000c78008004eb00e1c5b30090cf100003
:1032100002003a00000ce800190020001210200003
:103220008900780072004700a9f707000040eb0012
:10323000205798001800780090407800d2c2b30060
:1032400082cf500005003a00000ce80010c0b30027
:103250000940500000c7980029003700d2c5b300cc
:1032600082cf500026003a00000ce80010c0b300e6
:103270000940500000f79800210037000004e000ea
:1032800024003200d3c2b300834f500015003a002f
:1032900018009000104078000004e0001100320097
:1032a000814f50000f0032000201e800020c78004c
:1032b00078b897001000fb00f20047000080400043
:1032c000030037000000e80011c0b30009c8500037
:1032d000f2014700830150009200fb00818f5100f2
:1032e000f8ff3500180078009000fb00f3804000e4
:1032f00012c0b3000941510002f77800000ce80049
:103300001801780012407800d1c5b300814f5000f9
:10331000daff3a000d00e000180032008d0078005e
:103320000006eb0003003700895878000c06e8001f
:103330009b0de8007a0890003a119000820f50002f
:1033400003003100b084fb00700d980005003700c9
:103350000a007800310f99000d0107008004780001
:10336000be089100738044006e4078000004e000c5
:10337000edff3a00100037009b0de8007a0890003e
:10338000ba109000810f500003003100b084fb00a0
:10339000700d9800030037000a007800fc00070059
:1033a00080047800738044006e4078000004e000e0
:1033b000f1ff3a000006eb003a1090000000e00038
:1033c000030032007a0890000000e900700d9800b8
:1033d0000c00e000040032000d00e00002003200aa
:1033e0008c864600804eeb00180ce800e18f44000c
:1033f000010032008004eb00090078004f06be0097
:103400004f05be004f04be000080fa000000060019
:1034100000000500000005008400fa00889fbe003f
:103420008a1f78000005780082047800b13f9f0071
:103430000000eb00c03f9f00000478000d00370043
:103440000902780083f72f008f814100a2f72f0037
:103450000f01410061f72f008f8040000a007800c3
:1034600020fe0700800178000300e0000400350022
:10347000030444003f3897001004e000f0ff3a00d6
:10348000e18f410003003a000800e00001003a002b
:1034900003047800080078004f0578004f04be0050
:1034a0000080fa0000000600889fbe008a9fbe00d0
:1034b0008c9fbe00800578008106780002067800a7
:1034c000eb0c9000081020000c0444000801780068
:1034d0008000eb0009007800520007000000e000c7
:1034e0000100320009045000080578008c0f5400d8
:1034f000010036000c0578000a0178008900780088
:103500000d007800760007000a804400f00d980056
:103510000884440088159800e80d98000a00780097
:103520004f06be004f05be004f04be00000006005f
:10353000800078001000200002022000828f5000de
:1035400004003200e9805000e48f50000100360092
:103550000000eb0000000600889fbe008a1f780074
:10356000000578000a047800984478000805e8000f
:103570000900fb00eeff07000000e000f9ff3a0041
:10358000b0c2b30080cf540005003200d0c2b300f7
:103590008000eb0080cf540005003a0002003700a5
:1035a0008000eb0001003700110020000804e80053
:1035b0000000eb0003003700ea00b90002005000f1
:1035c0000003b0003801fb0003fd2f0082814100a1
:1035d000e98f5100f8ff36000100e00001003a00d9
:1035e0000000ea004f0578004f04be00000006000e
:1035f0008000780002fd2f00010141001000200032
:10360000e90f5100050036000150a0001106b1007d
:10361000e58f5000010036000000eb0000000600be
:10362000f3ff37008180fb00010037000201e90051
:10363000800178000008a300060032000200e000cc
:10364000220032003082fb00810f5200f7ff3a0067
:10365000030037000000eb000200e0001d00320014
:103660001380fb00810f50001b0032001610200059
:10367000868bb900010037000281e9000300780061
:10368000e10f51000a00360033026b00f5ef2f0006
:10369000848242000482ea00048262000508280055
:1036a00005026200f4ff3200010037000201e90068
:1036b000800178000200e000050032003082fb004b
:1036c000810f5200f9ff3a000300370000000500a7
:1036d0000000eb0000000600030078000000060078
:1036e0008001780002003700b15978000201e9003a
:1036f0000200e000fcff3a0000000600889fbe00c8
:103700008a9fbe00441098005510980066109800db
:1037100077109800f00890002004900001045400f5
:10372000cfc4de00614db900081898001918980040
:103730002a1898003b189800e00f5200e08f5a00ba
:10374000e00f5b00e08f5b000c0032000014900083
:1037500001045400cfc4de00614db9000440e10013
:1037600005c8e10006d0e10007d8e10003003400fd
:10377000048240003410980002003700801090004e
:10378000311098004f05be004f04be000000060037
:103790002800fa00889fbe008a1f78000004780085
:1037a000f80890002800900000805000081a90004f
:1037b000981a9000281b9000b81b9000cf80de0064
:1037c0000402400085824800068348008783480041
:1037d00048109000d810900068119000f8119000e7
:1037e000e00f5000e08f5800e00f5900e08f5900c3
:1037f000050032000020e10001a8e10002b0e10074
:1038000003b8e1000d003d0008007800d4b79f0028
:10381000e5b79f00f6b79f0087bf9f00d301070061
:10382000800478005fb29700efb297007fb39700f3
:103830008fbb97000900e00016003d00780890005b
:10384000a8009000808050004f89de000482400074
:10385000850249000603490087034900041c9800bb
:10386000151c9800261c9800371c980030149800ee
:10387000f0ff2f00f1ff2f000001be004014980060
:103880005114980062149800731498008084eb001f
:103890005200370061004200e0804a0060014b00a6
:1038a000e0814b0090bf9f00a1bf9f00b2bf9f006f
:1038b000c3bf9f0048129000d81290006813900078
:1038c000f813900094b79f00a5b79f00b6b79f006c
:1038d000c7b79f00e00f5200e08f5a00e00f5b0077
:1038e000e08f5b0028003200780d900008119000f6
:1038f0000a0151006112b900612bb900d4af9f00d9
:10390000e5af9f00f6af9f0087b79f001fb09700fd
:10391000afb097003fb19700cfb197001fba9700a3
:10392000afba97003fbb9700cfbb97000400500091
:1039300085805800060159008781590090af9f008b
:10394000a1af9f00b2af9f00c3af9f005faa9700d7
:10395000efaa97007fab97008fb397000020e1009c
:1039600001a8e10002b0e10003b8e1000600340064
:103970009fb297001fbb970006815200820045004e
:103980003114980002003700881390003714980013
:1039900028019000f8089000810151001fba97009b
:1039a000afba97003fbb9700cfbb97004f98de00a0
:1039b000048241008502480006034800870348004e
:1039c000041c9800151c9800261c9800371c9800b1
:1039d000828f500001003e00f9f89f000900780036
:1039e0004f0578004f04be000080fa00000006007a
:1039f00080007800040037003104e00002003a0043
:103a00000000510000000600010178000108a30039
:103a1000f9ff3a008101780031017800f4ef2f00be
:103a2000020242000281ea0002016200040828004a
:103a300004016100f7ff3200830078000101780083
:103a40003104e000fdff3a000000510000000600d4
:103a50004400fa00889fbe008a1f78000004be0060
:103a60000205780094bf9f00a5bf9f00b6bf9f00ce
:103a7000c7bf9f000000eb00c09f9f00a8af9f0042
:103a8000d89f9f000080eb00b0af9f006022b8007d
:103a90006033b80060fb2f000f00400017ff0700e5
:103aa0001fba9700afba97003fbb9700cfbb9700f4
:103ab000120020008a00780060fb2f000f004000f9
:103ac000490107000900e000060032003fb29700fc
:103ad000afaa970004824200df9a970005025200c5
:103ae000840c44004f0578004f04be000080fa00ab
:103af00000000600f4ff2f00f5ff2f000403be00b6
:103b0000d3ff37006022b80006002000070028001d
:103b1000cfff3700f4ff2f00f5ff2f006033b80010
:103b2000cbff370004002000050028006033b800f8
:103b3000c7ff3700f3ff3700eeff3700f1fb2f0020
:103b400080804000f98f500001003e000050a0002e
:103b500000000600f9ff3700f1f92f0080804000d7
:103b6000f98f500001003e00f005b2000000060091
:103b7000f9ff37000200fa00881f7800000478007f
:103b8000e2bf9f00648157000800780022fe070012
:103b9000980090000148a300010032000080eb0073
:103ba0004f0478000080fa0000000600f28747000a
:103bb0008e1f780002027800030178000000e00008
:103bc00002003200000778000100370072875700ba
:103bd0008002eb000100e000010032008102e900f8
:103be00070805700060009000018eb000080eb0011
:103bf00080bf9f002310200093bf9f00aebf9f0097
:103c0000b1bf9f00c5bf9f000100e00003003d0061
:103c1000b1042000118f880006003700004feb0030
:103c2000eebf9f00debf9f008400780070805700c9
:103c30003f0307004f0778002f01b1000000060086
:103c4000881f78000004780000082000808f500052
:103c50001700350010082000808f50000b00340042
:103c600030082000808f500011003a009200780048
:103c700068805000000978003002be002003be00ba
:103c8000049cbe000694be00070037009202780034
:103c900064805200000978001000be00a2050700f1
:103ca000009cbe000294be001000200001003700fe
:103cb0000000eb004f04780000000600881f780029
:103cc00013082000838f50000f00320033082000bb
:103cd000838f50000400320003082000838f5000bf
:103ce00012003a00080037009280e90001097800cc
:103cf000910078003002be002003be008498be0010
:103d00008690be00070037009280e9000109780024
:103d1000110478005001be004000be00b605070047
:103d2000008cbe0010002000010037000000eb00f6
:103d30004f0478000000060084082000848f5000a3
:103d40001d0032000d003c0014082000848f50003c
:103d50001e00320002003c0004082000040037006e
:103d600024082000848f50001e00320044082000e8
:103d7000848f500028003a0022003700040a2000f7
:103d8000848f50001f00320004003c000409200012
:103d9000848f500020003a0012003700020c2000ef
:103da000828f500017003200020f2000828f5000d7
:103db00019003a00130037009380e9008109780068
:103dc0009100780090487800120037009380e90055
:103dd0008109780091007800b0187800a010780070
:103de0000c0037009380e900810978009100780089
:103df0003002be002003be008498be008690be0044
:103e0000040037009380e900810978009100780070
:103e1000900878001000050000000500889fbe0093
:103e20008a9fbe008c9fbe000004780002057800c7
:103e300021069000c1069000b10590009a04780018
:103e40000800780074fb0700090d40000c00e0003a
:103e500001003a000d06e9008004eb00290037005c
:103e6000f808900038109000808f50000300310057
:103e70003180fb00710c98000700370008007800c3
:103e800043fe0700e10f400003003a000900e00094
:103e900021003c00230037000900e0000a003a003e
:103ea000b1022000810f500003003200d102200037
:103eb000810f500004003a00804d78001a0de80090
:103ec000190020000f00370001fd2f008080400006
:103ed000e98f500007003600381090000000e00025
:103ee0000d003200780890000000e900700c980086
:103ef0000900370089804500804878008904e8007f
:103f00001a0de8008c8f540003003d000d00e900fd
:103f1000808f5400d2ff350089844500804ceb002f
:103f20000000eb004f06be004f05be004f04be0070
:103f300000000600c06090000141e900814071006e
:103f40004160980010019000e4006100040032001c
:103f50000240a000120098000080eb000000060064
:103f60000110980071089800000005000200fa0096
:103f7000889fbe000004780008007800c003070096
:103f80008084eb000000e00009003a0098119000e6
:103f900012002000e68057000800780003000100ae
:103fa000e10f500002003a002ff897008084fb00d8
:103fb000090078004f04be000080fa0000000600ef
:103fc000800078001000200002022000828f500044
:103fd00004003200e9805000e48f500001003600f8
:103fe0000000eb00000006006f02b000889fbe00da
:103ff0008a9fbe008c9fbe008e1f7800000678004e
:104000000107780082047800d4af9f00e5af9f00dd
:10401000f6af9f0087b79f0040022000800f570037
:104020007e003e00e10f57007c0032007c089000cb
:10403000bc109000810f500003003100b086fb00df
:10404000700e9800030037000c007800d0fd0700c8
:10405000800678000d007800d9ff07000000e0001e
:10406000f2ff3a00b0022000808f560005003200b7
:104070008002eb0085af9f00d0022000808f5600a9
:1040800010003a00dd82b2000df0a7008d06ea00b4
:104090008d06e900cfeede008daf9f007c0890001a
:1040a000bc109000810f500003003100b086fb006f
:1040b000700e9800030037000c007800b4fd070074
:1040c000800678000e00e00002003200f00f57007a
:1040d00043003a0000032000808f56003d003a0064
:1040e0007c089000bc109000810f5000030031004c
:1040f000b086fb00700e9800030037000c007800bb
:10410000a3fd0700800678008d0078000150a00014
:1041100080072000808f50002b003a007c08900020
:10412000bc109000810f500003003100b086fb00ee
:10413000700e9800030037000c00780094fd070013
:104140008006780080022100008046000e012000d9
:10415000f6c0b300904f13008c0036003c10900066
:104160000000e00003003200fc0890008100e9003c
:10417000710e98000900e0000c0032006022b800c7
:104180006033b800d4af9f00e5af9f00f6af9f004b
:1041900087b79f000000e000a20132007c08900079
:1041a0000000e900700e98009e0137006022b80000
:1041b0006033b8000c00780050fd07006000b800c4
:1041c0006011b800930137000e00e0009f0132003b
:1041d000170037000e00e00001003a00ae0020009a
:1041e00080022100008046001080fb008e0f5000ee
:1041f0000f0039003c1090000000e0000300320086
:104200007c0890000000e900700e98006022b80061
:104210006033b8000c00780038fd07006001200012
:10422000108f88006022b8006033b8007201370038
:10423000ea0f570055003a000004eb000d0078002b
:104240000c003700ea44b900000444000803b10040
:10425000fc0890003c109000808f5000030031005b
:104260003180fb00710e9800020037000c007800ce
:1042700047fd070001fd2f0080804000e98f5000be
:1042800003003e0081992100810f5400edff3600ac
:10429000800678008004eb006055b80012003700fb
:1042a0001faa9700afaa97003fab9700cfab97002c
:1042b0000004420081844a0002054b0083854b00c4
:1042c0007c089000bc109000810f5000030031006a
:1042d000b086fb00700e9800030037000c007800d9
:1042e0002bfd07008006780005fd2f008582460023
:1042f00095af9f00e98f52000b013e009099290075
:104300009199290092992900939921000040e10098
:1043100001c8e10002d0e10003d8e100dd003e0069
:10432000a4002000050020006033b8000800be0093
:104330000a01be00630507001faa97008002eb0078
:104340006033b80094af9f00a5af9f00b6af9f0049
:10435000c7af9f000482ea008582ea000683ea0074
:104360008783ea00d4b79f00e5b79f00f6b79f00a8
:1043700087bf9f000400e1000588e1000690e1008e
:104380000798e100c6ff3600c20037000e00e900c2
:104390000e006000030032000004eb000d00780006
:1043a00066003700f770b90075800a000000000051
:1043b000e1012100008040009000fb000004eb00c0
:1043c0000d007800810478000b0037000944dd00ff
:1043d00001047400fc0890003c109000808f500095
:1043e000030031003180fb00710e9800020037009d
:1043f0000c007800e6fc07008102210081004000eb
:104400009180fb008e8f500003003100f27f20006e
:10441000820f5400edff3600800678008900780096
:104420008004eb006055b800f4ff2f00f5ff2f006b
:104430000403be00010078000000e900050033001d
:104440008703d1000683d3008582d3000482d30082
:10445000f9ff37000d007800810678002000370052
:104460000d0178000201e900050033000804d000c6
:104470008984d2000a85d2008b85d200f9ff3700eb
:104480000180fb008000eb006011b80008047000a0
:10449000898470000a0571008b857100fc0890000a
:1044a0003c109000808f5000030031003180fb00f1
:1044b000710e98000a0037000c00780094b79f0036
:1044c000a5b79f00b6b79f00c7b79f00b0fc070015
:1044d000cfb397003fb39700afb297001fb29700da
:1044e0008102210081004000914078000181fb00a1
:1044f0008e0f5100610031000440e10005c8e10069
:1045000006d0e10007d8e100d5ff36005b00370098
:104510008ec4b90008844000fc0890003c10900054
:10452000808f5000030031003180fb00710e980035
:10453000020037000c00780095fc07008102210082
:10454000810040009180fb008e8f500003003100fd
:10455000b2712000820f5400edff36008006780013
:104560008004eb006055b80098af9f00a9af9f0092
:10457000baaf9f00cbaf9f0012003700000244008b
:1045800081824c0002034d0083834d0094af9f0055
:10459000a5af9f00b6af9f00c7af9f007c089000fb
:1045a000bc109000810f500003003100b086fb006a
:1045b000700e9800030037000c00780074fc0700b0
:1045c00080067800800221000080460010407800bc
:1045d000e0cf9f00804278000580fb008e0f5000e6
:1045e000280031006174b8006055b8000802be00b0
:1045f0000a03be00f0ff2f00f1ff2f000001be00f4
:10460000470407001faa9700afaa97003fab970087
:10461000cfab97000020e10001a8e10002b0e1006b
:1046200003b8e10017003e000802be000a03be0006
:104630001fa89700afa897003fa99700cfa99700a0
:10464000a0040700efca97000584fb008004eb007c
:104650006055b8000882ea008982ea000a83ea000d
:104660008b83ea000400e1000588e1000690e10088
:104670000798e100c1ff360002003700800678008d
:10468000040037001fac9700afac97003fad970018
:10469000cfad970080022100008046001080fb0013
:1046a0008e0f5000200031000d0078000900370007
:1046b000fc0890003c109000808f500003003100f7
:1046c0003180fb00710e9800020037000c0078006a
:1046d0002ffc070081022100010040001080fb0038
:1046e0008e0f5000f2ff390020022000108f88004a
:1046f0005fab97000608a300070032005fac97008d
:10470000efac97007fad97008fb597008003eb006b
:1047100087af9f00040037005fac9700efac9700b5
:104720007fad97008fb597003c1090000000e0002f
:10473000030032007c0890000000e900700e980031
:104740005fa89700efa897007fa997008fb1970007
:104750000040e10001c8e10002d0e10003d8e1001f
:104760001c0039000008a3000e003a008fa8970033
:104770000100e0000b003a0020022000108f8800aa
:104780005faa9700efaa97007fab97008fb39700bf
:1047900061025200e0825a0060035b00e0835b002c
:1047a000150037005fa89700efa897007fa9970032
:1047b0008fb197000040e10001c8e10002d0e100a4
:1047c00003d8e1000300360020022000108f88008b
:1047d000140037008fa89700e18f40000b003a00cb
:1047e0006000b8006011b8000802500089825800cb
:1047f0000a0359008b835900d4af9f00e5af9f0097
:10480000f6af9f0087b79f00060037000800be0084
:104810000a01be00d0af9f00e1af9f00f2af9f0042
:1048200083b79f005fa89700efa897007fa9970024
:104830008fb197004f0778004f06be004f05be00ae
:104840004f04be006f02b100000006008e00200081
:10485000cefe3700881f780040442000ad010700dd
:10486000000478000800e00013003200c2032000ba
:104870008000eb000800780015f20700a04d220030
:10488000300c9800806b2200400c980040562200ab
:1048900070049800405d22001014980000c0eb00e6
:1048a000205c98004004200008004000200498008c
:1048b0000040200030049800080078004f04780081
:1048c00000000600889fbe008a9fbe001002900074
:1048d0008002eb000418a30003003a00801290004d
:1048e0007009900082825200d00190006001900017
:1048f0000284510008844200cfc4de00614db9003b
:104900008898be008a90be000000eb000468a300f7
:104910000400320010002000828f510001003e0090
:104920000000eb004f05be004f04be000000060073
:104930000200fa00881f780000047800e2bf9f00a0
:104940006481570008007800aef6070098009000d8
:104950000148a300010032000080eb004f04780002
:104960000080fa0000000600889fbe000004780066
:104970004800900082047800808f540001003600c7
:1049800080047800090178005800900054fb07006b
:10499000580090000900400050049800c8009000a2
:1049a00089845000490498000048eb004f04be0081
:1049b00000000600100078007ff1370090019000a1
:1049c0000388a30001003200e7ff37000348a3007b
:1049d00001003a000502070000000600010178000e
:1049e000920090000158a30003003a008200780072
:1049f000910107000f0037008080fb00a259900052
:104a00008301fb00838f500007003200d201900029
:104a1000220a9000848f51000300310080597800f1
:104a200053019800040037008000780002007800ed
:104a3000f401070080007800010078000000060003
:104a4000000006008012210000000600889fbe00c2
:104a50000004be000000eb000800e0001800320077
:104a6000180090000058a3000d003200d8009000fc
:104a700068009000808f500009003600b80990004f
:104a80000001eb00820078000800780003000100bc
:104a9000d80090000080eb000100e0000800320028
:104aa0000000eb00200c980060049800500498006f
:104ab0000900e000020032001800780013f107003e
:104ac0004f04be0000000600889fbe000004be0028
:104ad0000000eb000800e000250032001800900004
:104ae0000058a30011003200d80090006800900028
:104af000808f500009003600b80990000001eb00db
:104b0000820078000800780003000100d8009000bf
:104b10000080eb000100e000150032000000eb0017
:104b2000200c98006004980050049800780a9000c7
:104b300008109000800f5200060031000002520061
:104b400011002000cfa2de00612bb9001800780010
:104b5000330107000000eb0000149800700c98006f
:104b60000900e0000200320018007800e7f00700ba
:104b70004f04be0000000600000006000000050013
:104b8000fdff0700208f80008000eb00630107001d
:104b9000208f80008000eb0060010700208f8000e4
:104ba0008000eb005d0137000800fa00889fbe001e
:104bb0008a1f7800000478000105780082047800dc
:104bc00038009000a80090009abf9f000001780074
:104bd00002f0a7000201ea000201ea004f11de0024
:104be00002815400a2bf9f00b1bf9f00c0bf9f00c1
:104bf00022002000ee8057001800780026010700f0
:104c00000000e00006003c00f80060000130a20057
:104c10001801900082807000110498001100370084
:104c20002fb99700820f50000e003600a8009000a8
:104c3000710c9800020050000080400000149800a1
:104c4000380090000000e000070032000905450030
:104c500001007800b040780071fd9f00700c980052
:104c60000100370080047800090078004f057800c3
:104c70004f04be000080fa0000000600881f780084
:104c80000004780018007800e50007000203be0069
:104c90000002be00f0ff2f00f1ff2f000001be0058
:104ca000e00f5200e08f5a00e00f5b00e08f5b00e6
:104cb00005003500180090000030a1001004980095
:104cc0006000b8006011b8004f04780000000600d2
:104cd0000800fa00889fbe008a1f78000004be000a
:104ce000180090000058a3001b003200d80090006c
:104cf00068009000808f500013003600b8099000c3
:104d00000001eb00820078000800780094bf9f004b
:104d1000a5bf9f00b6bf9f00c7bf9f000300010053
:104d200058059000f0ff2f00f1ff2f000001be009a
:104d30001fba9700afba97003fbb9700cfbb970051
:104d40000a00e000060032000000eb00200c980092
:104d500060049800500498000800be00c7ff0700d8
:104d60004f0578004f04be000080fa0000000600e6
:104d70000800fa00889fbe008a1f78000004be0069
:104d8000e18f540008003a008810900078089000e5
:104d900000805000cf80de000002520081825a0065
:104da00001035b0081835b00180090000058a300a2
:104db0001b003200d800900068009000808f5000e7
:104dc00013003600b80990000001eb008200780063
:104dd0000800780094bf9f00a5bf9f00b6bf9f004a
:104de000c7bf9f000300010058059000f0ff2f008f
:104df000f1ff2f000001be001fba9700afba970065
:104e00003fbb9700cfbb97000a00e00015003200bf
:104e10000000eb00200c98006004980050049800fb
:104e20000800be0095ff07000203be000002be009e
:104e3000f0ff2f00f1ff2f000001be00e00f520035
:104e4000e08f5a00e00f5b00e08f5b00050035004b
:104e50000000eb0000149800700c98006000b8008f
:104e60006011b8004f0578004f04be000080fa00c2
:104e700000000600000006004016210000000600a9
:104e8000881f780000047800486090008040e900a6
:104e900000c0700040649800d80090006800900046
:104ea000808f500005003600b80990000001eb002b
:104eb0008200780008007800030001000000eb0089
:104ec000200c98006004980050049800980090000e
:104ed0000118a300030032000140a0001104980053
:104ee00008003700280190003800900000004100c1
:104ef00000149800700c98000000eb000138a3002b
:104f0000010032000080eb004f0478000000060032
:104f10001bff37000200fa00889fbe000000e0007f
:104f200001003a00100020000004e8000800a10081
:104f3000008f80000000e8000000a100008f8800c2
:104f4000000020000000e0000f003200e10f5400dc
:104f500006003600e20f440005003a00c0002000c1
:104f6000108f88000000eb002a0037002800200086
:104f70000800780022ec0700290020000000e00073
:104f800024003a00010037008004eb00008f80000d
:104f9000f18e800000805000800f54001300360016
:104fa00008804400d0bf9f0066805700cc000700f7
:104fb000800078000000eb000100e00015003200e6
:104fc0000100e8000000a100f18e8000810f500078
:104fd00001003200008f8800dfb897000100400018
:104fe0000000e8000000a100f08e8800018f800022
:104ff0000900e00003003200010078000818780082
:1050000001003700010078000884440088804000d7
:10501000018f88004f04be000080fa0000000600e7
:10502000a0fd2f00f1ff2f00320007004f89de00a6
:1050300082017800000006000200fa008101780079
:10504000e0ff9f00930090000188a300050032005c
:10505000d3009000805878000080fb00d1019800b8
:105060000a003700120020008f80e900030078005a
:105070005e000700800078000080eb000100e00087
:1050800002003200eff897000180fb000080fa0078
:105090000000060051fe3700889fbe008a9fbe00b8
:1050a0008c1f7800000678008205780001047800e3
:1050b0008004eb0009057800070037001801900014
:1050c000980078000c00780049ef070080844400c5
:1050d0000a05e800640444008b0f5500f7ff350013
:1050e000090078004f0678004f05be004f04be004f
:1050f0000000060002002f00f3ff2f00820f500077
:10510000838f5800040036000000ea00108f8800ea
:105110000080eb008080eb00000006008001eb00c7
:105120000000e00005003200700190000200e00085
:1051300002003200020001008001780003007800c4
:10514000000006006000b8006011b8000000060012
:10515000881f7800c00120006eff0700000478005f
:105160000800e0000a003200c20120008000eb00cd
:1051700008007800d6ef0700a04d2200300c980000
:1051800080662200400c980000c0eb00205c980074
:10519000080078004f04780000000600adfd3700dd
:1051a0004009900002040100d001900060019000cd
:1051b00002825100cfa2de00612bb9008498be00ac
:1051c0008690be00900090000000eb000168a300f4
:1051d0000400320010002000828f510001003e00c8
:1051e0000000eb0000000600b6fd3700b00990009b
:1051f0000300e00001003200030401001000780009
:105200006def37000200fa00881f78000004780074
:10521000c1ff9f00280890000000e00006003a004f
:105220000800780020000700800078000080eb0074
:105230000100e00018003a00d80090002808900013
:10524000808f5000090031004ff997000280fb0069
:10525000a85990008301fb00830f50000300320027
:1052600082587800510498000b003700b80990006c
:1052700012002000e48057000800780003000100bd
:10528000800078000080eb00e18f500002003a00bf
:10529000cff897000180fb004f0478000080fa00ef
:1052a0000000060000000500881f78000004780058
:1052b000080078001ffb07000000e00006003a002d
:1052c000a8009000610498005104980038019000f3
:1052d00082804000210c98004f04780000000600f6
:1052e000900078000000eb000100e00005003500b0
:1052f000010078000eef0700e10f400001003a00c6
:105300000000eb000000060000000600feff0700a2
:10531000fdff0700fcff370000c0da0000000600b8
:1053200000c0da0000000600810378001d000700bd
:105330000001be006000b8000478a30013003a002a
:105340006220e10015003e000d0039008301d1000c
:105350000281d3008180d3008301d1000281d30078
:105360008180d3008301d1000281d3008180d300ea
:105370000538b000c42add00f300b200838172005a
:1053800007f0a70003f0a0000000060083ff27003d
:10539000020020006110b900f9ff370003ff270069
:1053a000f7ff3700c70ade00f107b200f50fb200c1
:1053b00008003200e1cf4200020032000170a0007c
:1053c00024000500810f7000010032000408050070
:1053d00044000500810f700002003a00140005002f
:1053e0008502e9000000400081c04800fcff3b004e
:1053f0000170a000240005001400fa00889fbe0080
:105400008a9fbe008c9fbe000005be000206be0043
:10541000680047000c90be000a90be0052010700d1
:105420006400e1001a00320016003e006100e10055
:105430001a0032006e049000fe0490000e0b9000e3
:105440009e0b90006011b8009e0590000b38b100d3
:10545000d501200082817100610164008703d100c1
:105460000683d3008984d3000884d3008502e90031
:10547000f8ff3a007c0107000df0a70001f0a00042
:105480007401370001fc270000002000faff3700fc
:1054900001f8270000002000f7ff37006000b80087
